{
  "_format": "hh-sol-artifact-1",
  "contractName": "NFTMarketplace",
  "sourceName": "contracts/NFTMarketplace.sol",
  "abi": [
    {
      "inputs": [],
      "stateMutability": "nonpayable",
      "type": "constructor"
    },
    {
      "anonymous": false,
      "inputs": [
        {
          "indexed": true,
          "internalType": "address",
          "name": "owner",
          "type": "address"
        },
        {
          "indexed": true,
          "internalType": "address",
          "name": "approved",
          "type": "address"
        },
        {
          "indexed": true,
          "internalType": "uint256",
          "name": "tokenId",
          "type": "uint256"
        }
      ],
      "name": "Approval",
      "type": "event"
    },
    {
      "anonymous": false,
      "inputs": [
        {
          "indexed": true,
          "internalType": "address",
          "name": "owner",
          "type": "address"
        },
        {
          "indexed": true,
          "internalType": "address",
          "name": "operator",
          "type": "address"
        },
        {
          "indexed": false,
          "internalType": "bool",
          "name": "approved",
          "type": "bool"
        }
      ],
      "name": "ApprovalForAll",
      "type": "event"
    },
    {
      "anonymous": false,
      "inputs": [
        {
          "indexed": true,
          "internalType": "address",
          "name": "from",
          "type": "address"
        },
        {
          "indexed": true,
          "internalType": "address",
          "name": "to",
          "type": "address"
        },
        {
          "indexed": true,
          "internalType": "uint256",
          "name": "tokenId",
          "type": "uint256"
        }
      ],
      "name": "Transfer",
      "type": "event"
    },
    {
      "anonymous": false,
      "inputs": [
        {
          "indexed": true,
          "internalType": "uint256",
          "name": "tokenId",
          "type": "uint256"
        },
        {
          "indexed": false,
          "internalType": "address",
          "name": "seller",
          "type": "address"
        },
        {
          "indexed": false,
          "internalType": "address",
          "name": "owner",
          "type": "address"
        },
        {
          "indexed": false,
          "internalType": "uint256",
          "name": "price",
          "type": "uint256"
        },
        {
          "indexed": false,
          "internalType": "bool",
          "name": "sold",
          "type": "bool"
        }
      ],
      "name": "idMarketItemCreated",
      "type": "event"
    },
    {
      "inputs": [
        {
          "internalType": "address",
          "name": "to",
          "type": "address"
        },
        {
          "internalType": "uint256",
          "name": "tokenId",
          "type": "uint256"
        }
      ],
      "name": "approve",
      "outputs": [],
      "stateMutability": "nonpayable",
      "type": "function"
    },
    {
      "inputs": [
        {
          "internalType": "address",
          "name": "owner",
          "type": "address"
        }
      ],
      "name": "balanceOf",
      "outputs": [
        {
          "internalType": "uint256",
          "name": "",
          "type": "uint256"
        }
      ],
      "stateMutability": "view",
      "type": "function"
    },
    {
      "inputs": [
        {
          "internalType": "uint256",
          "name": "tokenId",
          "type": "uint256"
        }
      ],
      "name": "createMarketSale",
      "outputs": [],
      "stateMutability": "payable",
      "type": "function"
    },
    {
      "inputs": [
        {
          "internalType": "string",
          "name": "tokenURI",
          "type": "string"
        },
        {
          "internalType": "uint256",
          "name": "price",
          "type": "uint256"
        }
      ],
      "name": "createToken",
      "outputs": [
        {
          "internalType": "uint256",
          "name": "",
          "type": "uint256"
        }
      ],
      "stateMutability": "payable",
      "type": "function"
    },
    {
      "inputs": [],
      "name": "fetchItemsListed",
      "outputs": [
        {
          "components": [
            {
              "internalType": "uint256",
              "name": "tokenId",
              "type": "uint256"
            },
            {
              "internalType": "address payable",
              "name": "seller",
              "type": "address"
            },
            {
              "internalType": "address payable",
              "name": "owner",
              "type": "address"
            },
            {
              "internalType": "uint256",
              "name": "price",
              "type": "uint256"
            },
            {
              "internalType": "bool",
              "name": "sold",
              "type": "bool"
            }
          ],
          "internalType": "struct NFTMarketplace.MarketItem[]",
          "name": "",
          "type": "tuple[]"
        }
      ],
      "stateMutability": "view",
      "type": "function"
    },
    {
      "inputs": [],
      "name": "fetchMarketItem",
      "outputs": [
        {
          "components": [
            {
              "internalType": "uint256",
              "name": "tokenId",
              "type": "uint256"
            },
            {
              "internalType": "address payable",
              "name": "seller",
              "type": "address"
            },
            {
              "internalType": "address payable",
              "name": "owner",
              "type": "address"
            },
            {
              "internalType": "uint256",
              "name": "price",
              "type": "uint256"
            },
            {
              "internalType": "bool",
              "name": "sold",
              "type": "bool"
            }
          ],
          "internalType": "struct NFTMarketplace.MarketItem[]",
          "name": "",
          "type": "tuple[]"
        }
      ],
      "stateMutability": "view",
      "type": "function"
    },
    {
      "inputs": [],
      "name": "fetchMyNFT",
      "outputs": [
        {
          "components": [
            {
              "internalType": "uint256",
              "name": "tokenId",
              "type": "uint256"
            },
            {
              "internalType": "address payable",
              "name": "seller",
              "type": "address"
            },
            {
              "internalType": "address payable",
              "name": "owner",
              "type": "address"
            },
            {
              "internalType": "uint256",
              "name": "price",
              "type": "uint256"
            },
            {
              "internalType": "bool",
              "name": "sold",
              "type": "bool"
            }
          ],
          "internalType": "struct NFTMarketplace.MarketItem[]",
          "name": "",
          "type": "tuple[]"
        }
      ],
      "stateMutability": "view",
      "type": "function"
    },
    {
      "inputs": [
        {
          "internalType": "uint256",
          "name": "tokenId",
          "type": "uint256"
        }
      ],
      "name": "getApproved",
      "outputs": [
        {
          "internalType": "address",
          "name": "",
          "type": "address"
        }
      ],
      "stateMutability": "view",
      "type": "function"
    },
    {
      "inputs": [],
      "name": "getListingPrice",
      "outputs": [
        {
          "internalType": "uint256",
          "name": "",
          "type": "uint256"
        }
      ],
      "stateMutability": "view",
      "type": "function"
    },
    {
      "inputs": [
        {
          "internalType": "address",
          "name": "owner",
          "type": "address"
        },
        {
          "internalType": "address",
          "name": "operator",
          "type": "address"
        }
      ],
      "name": "isApprovedForAll",
      "outputs": [
        {
          "internalType": "bool",
          "name": "",
          "type": "bool"
        }
      ],
      "stateMutability": "view",
      "type": "function"
    },
    {
      "inputs": [],
      "name": "name",
      "outputs": [
        {
          "internalType": "string",
          "name": "",
          "type": "string"
        }
      ],
      "stateMutability": "view",
      "type": "function"
    },
    {
      "inputs": [
        {
          "internalType": "uint256",
          "name": "tokenId",
          "type": "uint256"
        }
      ],
      "name": "ownerOf",
      "outputs": [
        {
          "internalType": "address",
          "name": "",
          "type": "address"
        }
      ],
      "stateMutability": "view",
      "type": "function"
    },
    {
      "inputs": [
        {
          "internalType": "uint256",
          "name": "tokenId",
          "type": "uint256"
        },
        {
          "internalType": "uint256",
          "name": "price",
          "type": "uint256"
        }
      ],
      "name": "reSellToken",
      "outputs": [],
      "stateMutability": "payable",
      "type": "function"
    },
    {
      "inputs": [
        {
          "internalType": "address",
          "name": "from",
          "type": "address"
        },
        {
          "internalType": "address",
          "name": "to",
          "type": "address"
        },
        {
          "internalType": "uint256",
          "name": "tokenId",
          "type": "uint256"
        }
      ],
      "name": "safeTransferFrom",
      "outputs": [],
      "stateMutability": "nonpayable",
      "type": "function"
    },
    {
      "inputs": [
        {
          "internalType": "address",
          "name": "from",
          "type": "address"
        },
        {
          "internalType": "address",
          "name": "to",
          "type": "address"
        },
        {
          "internalType": "uint256",
          "name": "tokenId",
          "type": "uint256"
        },
        {
          "internalType": "bytes",
          "name": "data",
          "type": "bytes"
        }
      ],
      "name": "safeTransferFrom",
      "outputs": [],
      "stateMutability": "nonpayable",
      "type": "function"
    },
    {
      "inputs": [
        {
          "internalType": "address",
          "name": "operator",
          "type": "address"
        },
        {
          "internalType": "bool",
          "name": "approved",
          "type": "bool"
        }
      ],
      "name": "setApprovalForAll",
      "outputs": [],
      "stateMutability": "nonpayable",
      "type": "function"
    },
    {
      "inputs": [
        {
          "internalType": "bytes4",
          "name": "interfaceId",
          "type": "bytes4"
        }
      ],
      "name": "supportsInterface",
      "outputs": [
        {
          "internalType": "bool",
          "name": "",
          "type": "bool"
        }
      ],
      "stateMutability": "view",
      "type": "function"
    },
    {
      "inputs": [],
      "name": "symbol",
      "outputs": [
        {
          "internalType": "string",
          "name": "",
          "type": "string"
        }
      ],
      "stateMutability": "view",
      "type": "function"
    },
    {
      "inputs": [
        {
          "internalType": "uint256",
          "name": "tokenId",
          "type": "uint256"
        }
      ],
      "name": "tokenURI",
      "outputs": [
        {
          "internalType": "string",
          "name": "",
          "type": "string"
        }
      ],
      "stateMutability": "view",
      "type": "function"
    },
    {
      "inputs": [
        {
          "internalType": "address",
          "name": "from",
          "type": "address"
        },
        {
          "internalType": "address",
          "name": "to",
          "type": "address"
        },
        {
          "internalType": "uint256",
          "name": "tokenId",
          "type": "uint256"
        }
      ],
      "name": "transferFrom",
      "outputs": [],
      "stateMutability": "nonpayable",
      "type": "function"
    },
    {
      "inputs": [
        {
          "internalType": "uint256",
          "name": "_listingPrice",
          "type": "uint256"
        }
      ],
      "name": "updateListingPrice",
      "outputs": [],
      "stateMutability": "payable",
      "type": "function"
    }
  ],
  "bytecode": "0x60806040526605543df729c0006009553480156200001c57600080fd5b506040518060400160405280601381526020017f4e4654204d657461766172736520546f6b656e000000000000000000000000008152506040518060400160405280600581526020017f4d594e465400000000000000000000000000000000000000000000000000000081525081600090816200009a919062000355565b508060019081620000ac919062000355565b5050503373ffffffffffffffffffffffffffffffffffffffff16600a60009054906101000a905050506200043c565b600081519050919050565b7f4e487b7100000000000000000000000000000000000000000000000000000000600052604160045260246000fd5b7f4e487b7100000000000000000000000000000000000000000000000000000000600052602260045260246000fd5b600060028204905060018216806200015d57607f821691505b60208210810362000173576200017262000115565b5b50919050565b60008190508160005260206000209050919050565b60006020601f8301049050919050565b600082821b905092915050565b600060088302620001dd7fffffffffffffffffffffffffffffffffffffffffffffffffffffffffffffffff826200019e565b620001e986836200019e565b95508019841693508086168417925050509392505050565b6000819050919050565b6000819050919050565b600062000236620002306200022a8462000201565b6200020b565b62000201565b9050919050565b6000819050919050565b620002528362000215565b6200026a62000261826200023d565b848454620001ab565b825550505050565b600090565b6200028162000272565b6200028e81848462000247565b505050565b5b81811015620002b657620002aa60008262000277565b60018101905062000294565b5050565b601f8211156200030557620002cf8162000179565b620002da846200018e565b81016020851015620002ea578190505b62000302620002f9856200018e565b83018262000293565b50505b505050565b600082821c905092915050565b60006200032a600019846008026200030a565b1980831691505092915050565b600062000345838362000317565b9150826002028217905092915050565b6200036082620000db565b67ffffffffffffffff8111156200037c576200037b620000e6565b5b62000388825462000144565b62000395828285620002ba565b600060209050601f831160018114620003cd5760008415620003b8578287015190505b620003c4858262000337565b86555062000434565b601f198416620003dd8662000179565b60005b828110156200040757848901518255600182019150602085019450602081019050620003e0565b8683101562000427578489015162000423601f89168262000317565b8355505b6001600288020188555050505b505050505050565b614246806200044c6000396000f3fe60806040526004361061012a5760003560e01c806372b3b620116100ab578063ae677aa31161006f578063ae677aa3146103ea578063b88d4fde14610406578063be9af5361461042f578063c18763f71461044b578063c87b56dd14610476578063e985e9c5146104b35761012a565b806372b3b6201461031f57806385535b251461034f5780638fafd0211461036b57806395d89b4114610396578063a22cb465146103c15761012a565b806323b872dd116100f257806323b872dd1461022857806342842e0e1461025157806345f8fa801461027a5780636352211e146102a557806370a08231146102e25761012a565b806301ffc9a71461012f57806306fdde031461016c578063081812fc14610197578063095ea7b3146101d457806312e85585146101fd575b600080fd5b34801561013b57600080fd5b5061015660048036038101906101519190612a16565b6104f0565b6040516101639190612a5e565b60405180910390f35b34801561017857600080fd5b506101816105d2565b60405161018e9190612b09565b60405180910390f35b3480156101a357600080fd5b506101be60048036038101906101b99190612b61565b610664565b6040516101cb9190612bcf565b60405180910390f35b3480156101e057600080fd5b506101fb60048036038101906101f69190612c16565b6106aa565b005b34801561020957600080fd5b506102126107c1565b60405161021f9190612c65565b60405180910390f35b34801561023457600080fd5b5061024f600480360381019061024a9190612c80565b6107cb565b005b34801561025d57600080fd5b5061027860048036038101906102739190612c80565b61082b565b005b34801561028657600080fd5b5061028f61084b565b60405161029c9190612e29565b60405180910390f35b3480156102b157600080fd5b506102cc60048036038101906102c79190612b61565b610b37565b6040516102d99190612bcf565b60405180910390f35b3480156102ee57600080fd5b5061030960048036038101906103049190612e4b565b610be8565b6040516103169190612c65565b60405180910390f35b61033960048036038101906103349190612fad565b610c9f565b6040516103469190612c65565b60405180910390f35b61036960048036038101906103649190613009565b610ce1565b005b34801561037757600080fd5b50610380610ed6565b60405161038d9190612e29565b60405180910390f35b3480156103a257600080fd5b506103ab61113e565b6040516103b89190612b09565b60405180910390f35b3480156103cd57600080fd5b506103e860048036038101906103e39190613075565b6111d0565b005b61040460048036038101906103ff9190612b61565b6111e6565b005b34801561041257600080fd5b5061042d60048036038101906104289190613156565b611280565b005b61044960048036038101906104449190612b61565b6112e2565b005b34801561045757600080fd5b506104606115ba565b60405161046d9190612e29565b60405180910390f35b34801561048257600080fd5b5061049d60048036038101906104989190612b61565b6118a6565b6040516104aa9190612b09565b60405180910390f35b3480156104bf57600080fd5b506104da60048036038101906104d591906131d9565b6119b8565b6040516104e79190612a5e565b60405180910390f35b60007f80ac58cd000000000000000000000000000000000000000000000000000000007bffffffffffffffffffffffffffffffffffffffffffffffffffffffff1916827bffffffffffffffffffffffffffffffffffffffffffffffffffffffff191614806105bb57507f5b5e139f000000000000000000000000000000000000000000000000000000007bffffffffffffffffffffffffffffffffffffffffffffffffffffffff1916827bffffffffffffffffffffffffffffffffffffffffffffffffffffffff1916145b806105cb57506105ca82611a4c565b5b9050919050565b6060600080546105e190613248565b80601f016020809104026020016040519081016040528092919081815260200182805461060d90613248565b801561065a5780601f1061062f5761010080835404028352916020019161065a565b820191906000526020600020905b81548152906001019060200180831161063d57829003601f168201915b5050505050905090565b600061066f82611ab6565b6004600083815260200190815260200160002060009054906101000a900473ffffffffffffffffffffffffffffffffffffffff169050919050565b60006106b582610b37565b90508073ffffffffffffffffffffffffffffffffffffffff168373ffffffffffffffffffffffffffffffffffffffff1603610725576040517f08c379a000000000000000000000000000000000000000000000000000000000815260040161071c906132eb565b60405180910390fd5b8073ffffffffffffffffffffffffffffffffffffffff16610744611b01565b73ffffffffffffffffffffffffffffffffffffffff16148061077357506107728161076d611b01565b6119b8565b5b6107b2576040517f08c379a00000000000000000000000000000000000000000000000000000000081526004016107a99061337d565b60405180910390fd5b6107bc8383611b09565b505050565b6000600954905090565b6107dc6107d6611b01565b82611bc2565b61081b576040517f08c379a00000000000000000000000000000000000000000000000000000000081526004016108129061340f565b60405180910390fd5b610826838383611c57565b505050565b61084683838360405180602001604052806000815250611280565b505050565b606060006108596007611ebd565b905060008060005b83811015610901573373ffffffffffffffffffffffffffffffffffffffff16600b6000600184610891919061345e565b815260200190815260200160002060010160009054906101000a900473ffffffffffffffffffffffffffffffffffffffff1673ffffffffffffffffffffffffffffffffffffffff16036108ee576001836108eb919061345e565b92505b80806108f990613492565b915050610861565b5060008267ffffffffffffffff81111561091e5761091d612e82565b5b60405190808252806020026020018201604052801561095757816020015b61094461294d565b81526020019060019003908161093c5790505b50905060005b84811015610b2c573373ffffffffffffffffffffffffffffffffffffffff16600b600060018461098d919061345e565b815260200190815260200160002060010160009054906101000a900473ffffffffffffffffffffffffffffffffffffffff1673ffffffffffffffffffffffffffffffffffffffff1603610b195760006001826109e9919061345e565b90506000600b60008381526020019081526020016000209050806040518060a0016040529081600082015481526020016001820160009054906101000a900473ffffffffffffffffffffffffffffffffffffffff1673ffffffffffffffffffffffffffffffffffffffff1673ffffffffffffffffffffffffffffffffffffffff1681526020016002820160009054906101000a900473ffffffffffffffffffffffffffffffffffffffff1673ffffffffffffffffffffffffffffffffffffffff1673ffffffffffffffffffffffffffffffffffffffff168152602001600382015481526020016004820160009054906101000a900460ff161515151581525050848681518110610afc57610afb6134da565b5b6020026020010181905250600185610b14919061345e565b945050505b8080610b2490613492565b91505061095d565b508094505050505090565b6000806002600084815260200190815260200160002060009054906101000a900473ffffffffffffffffffffffffffffffffffffffff169050600073ffffffffffffffffffffffffffffffffffffffff168173ffffffffffffffffffffffffffffffffffffffff1603610bdf576040517f08c379a0000000000000000000000000000000000000000000000000000000008152600401610bd690613555565b60405180910390fd5b80915050919050565b60008073ffffffffffffffffffffffffffffffffffffffff168273ffffffffffffffffffffffffffffffffffffffff1603610c58576040517f08c379a0000000000000000000000000000000000000000000000000000000008152600401610c4f906135e7565b60405180910390fd5b600360008373ffffffffffffffffffffffffffffffffffffffff1673ffffffffffffffffffffffffffffffffffffffff168152602001908152602001600020549050919050565b6000610cab6007611ecb565b6000610cb76007611ebd565b9050610cc33382611ee1565b610ccd81856120ba565b610cd78184612127565b8091505092915050565b3373ffffffffffffffffffffffffffffffffffffffff16600b600084815260200190815260200160002060020160009054906101000a900473ffffffffffffffffffffffffffffffffffffffff1673ffffffffffffffffffffffffffffffffffffffff1614610d85576040517f08c379a0000000000000000000000000000000000000000000000000000000008152600401610d7c90613679565b60405180910390fd5b6009543414610dc9576040517f08c379a0000000000000000000000000000000000000000000000000000000008152600401610dc09061370b565b60405180910390fd5b6000600b600084815260200190815260200160002060040160006101000a81548160ff02191690831515021790555080600b60008481526020019081526020016000206003018190555033600b600084815260200190815260200160002060010160006101000a81548173ffffffffffffffffffffffffffffffffffffffff021916908373ffffffffffffffffffffffffffffffffffffffff16021790555030600b600084815260200190815260200160002060020160006101000a81548173ffffffffffffffffffffffffffffffffffffffff021916908373ffffffffffffffffffffffffffffffffffffffff160217905550610ec7600861232a565b610ed2333084611c57565b5050565b60606000610ee46007611ebd565b90506000610ef26008611ebd565b610efc6007611ebd565b610f06919061372b565b90506000808267ffffffffffffffff811115610f2557610f24612e82565b5b604051908082528060200260200182016040528015610f5e57816020015b610f4b61294d565b815260200190600190039081610f435790505b50905060005b84811015611133573073ffffffffffffffffffffffffffffffffffffffff16600b6000600184610f94919061345e565b815260200190815260200160002060020160009054906101000a900473ffffffffffffffffffffffffffffffffffffffff1673ffffffffffffffffffffffffffffffffffffffff1603611120576000600182610ff0919061345e565b90506000600b60008381526020019081526020016000209050806040518060a0016040529081600082015481526020016001820160009054906101000a900473ffffffffffffffffffffffffffffffffffffffff1673ffffffffffffffffffffffffffffffffffffffff1673ffffffffffffffffffffffffffffffffffffffff1681526020016002820160009054906101000a900473ffffffffffffffffffffffffffffffffffffffff1673ffffffffffffffffffffffffffffffffffffffff1673ffffffffffffffffffffffffffffffffffffffff168152602001600382015481526020016004820160009054906101000a900460ff161515151581525050848681518110611103576111026134da565b5b602002602001018190525060018561111b919061345e565b945050505b808061112b90613492565b915050610f64565b508094505050505090565b60606001805461114d90613248565b80601f016020809104026020016040519081016040528092919081815260200182805461117990613248565b80156111c65780601f1061119b576101008083540402835291602001916111c6565b820191906000526020600020905b8154815290600101906020018083116111a957829003601f168201915b5050505050905090565b6111e26111db611b01565b8383612386565b5050565b600a60009054906101000a900473ffffffffffffffffffffffffffffffffffffffff1673ffffffffffffffffffffffffffffffffffffffff163373ffffffffffffffffffffffffffffffffffffffff1614611276576040517f08c379a000000000000000000000000000000000000000000000000000000000815260040161126d906137d1565b60405180910390fd5b8060098190555050565b61129161128b611b01565b83611bc2565b6112d0576040517f08c379a00000000000000000000000000000000000000000000000000000000081526004016112c79061340f565b60405180910390fd5b6112dc848484846124f2565b50505050565b6000600b600083815260200190815260200160002060030154905080341461133f576040517f08c379a000000000000000000000000000000000000000000000000000000000815260040161133690613863565b60405180910390fd5b33600b600084815260200190815260200160002060020160006101000a81548173ffffffffffffffffffffffffffffffffffffffff021916908373ffffffffffffffffffffffffffffffffffffffff1602179055506001600b600084815260200190815260200160002060040160006101000a81548160ff0219169083151502179055506000600b600084815260200190815260200160002060020160006101000a81548173ffffffffffffffffffffffffffffffffffffffff021916908373ffffffffffffffffffffffffffffffffffffffff1602179055506001600b600084815260200190815260200160002060040160006101000a81548160ff0219169083151502179055506000600b60008481526020019081526020016000206003018190555033600b600084815260200190815260200160002060020160006101000a81548173ffffffffffffffffffffffffffffffffffffffff021916908373ffffffffffffffffffffffffffffffffffffffff1602179055506114c36008611ecb565b6114ce303384611c57565b600a60009054906101000a900473ffffffffffffffffffffffffffffffffffffffff1673ffffffffffffffffffffffffffffffffffffffff166108fc6009549081150290604051600060405180830381858888f19350505050158015611538573d6000803e3d6000fd5b50600b600083815260200190815260200160002060010160009054906101000a900473ffffffffffffffffffffffffffffffffffffffff1673ffffffffffffffffffffffffffffffffffffffff166108fc349081150290604051600060405180830381858888f193505050501580156115b5573d6000803e3d6000fd5b505050565b606060006115c86007611ebd565b905060008060005b83811015611670573373ffffffffffffffffffffffffffffffffffffffff16600b6000600184611600919061345e565b815260200190815260200160002060020160009054906101000a900473ffffffffffffffffffffffffffffffffffffffff1673ffffffffffffffffffffffffffffffffffffffff160361165d5760018361165a919061345e565b92505b808061166890613492565b9150506115d0565b5060008267ffffffffffffffff81111561168d5761168c612e82565b5b6040519080825280602002602001820160405280156116c657816020015b6116b361294d565b8152602001906001900390816116ab5790505b50905060005b8481101561189b573373ffffffffffffffffffffffffffffffffffffffff16600b60006001846116fc919061345e565b815260200190815260200160002060020160009054906101000a900473ffffffffffffffffffffffffffffffffffffffff1673ffffffffffffffffffffffffffffffffffffffff1603611888576000600182611758919061345e565b90506000600b60008381526020019081526020016000209050806040518060a0016040529081600082015481526020016001820160009054906101000a900473ffffffffffffffffffffffffffffffffffffffff1673ffffffffffffffffffffffffffffffffffffffff1673ffffffffffffffffffffffffffffffffffffffff1681526020016002820160009054906101000a900473ffffffffffffffffffffffffffffffffffffffff1673ffffffffffffffffffffffffffffffffffffffff1673ffffffffffffffffffffffffffffffffffffffff168152602001600382015481526020016004820160009054906101000a900460ff16151515158152505084868151811061186b5761186a6134da565b5b6020026020010181905250600185611883919061345e565b945050505b808061189390613492565b9150506116cc565b508094505050505090565b60606118b182611ab6565b60006006600084815260200190815260200160002080546118d190613248565b80601f01602080910402602001604051908101604052809291908181526020018280546118fd90613248565b801561194a5780601f1061191f5761010080835404028352916020019161194a565b820191906000526020600020905b81548152906001019060200180831161192d57829003601f168201915b50505050509050600061195b61254e565b905060008151036119705781925050506119b3565b6000825111156119a557808260405160200161198d9291906138bf565b604051602081830303815290604052925050506119b3565b6119ae84612565565b925050505b919050565b6000600560008473ffffffffffffffffffffffffffffffffffffffff1673ffffffffffffffffffffffffffffffffffffffff16815260200190815260200160002060008373ffffffffffffffffffffffffffffffffffffffff1673ffffffffffffffffffffffffffffffffffffffff16815260200190815260200160002060009054906101000a900460ff16905092915050565b60007f01ffc9a7000000000000000000000000000000000000000000000000000000007bffffffffffffffffffffffffffffffffffffffffffffffffffffffff1916827bffffffffffffffffffffffffffffffffffffffffffffffffffffffff1916149050919050565b611abf816125cd565b611afe576040517f08c379a0000000000000000000000000000000000000000000000000000000008152600401611af590613555565b60405180910390fd5b50565b600033905090565b816004600083815260200190815260200160002060006101000a81548173ffffffffffffffffffffffffffffffffffffffff021916908373ffffffffffffffffffffffffffffffffffffffff160217905550808273ffffffffffffffffffffffffffffffffffffffff16611b7c83610b37565b73ffffffffffffffffffffffffffffffffffffffff167f8c5be1e5ebec7d5bd14f71427d1e84f3dd0314c0f7b2291e5b200ac8c7c3b92560405160405180910390a45050565b600080611bce83610b37565b90508073ffffffffffffffffffffffffffffffffffffffff168473ffffffffffffffffffffffffffffffffffffffff161480611c105750611c0f81856119b8565b5b80611c4e57508373ffffffffffffffffffffffffffffffffffffffff16611c3684610664565b73ffffffffffffffffffffffffffffffffffffffff16145b91505092915050565b8273ffffffffffffffffffffffffffffffffffffffff16611c7782610b37565b73ffffffffffffffffffffffffffffffffffffffff1614611ccd576040517f08c379a0000000000000000000000000000000000000000000000000000000008152600401611cc490613955565b60405180910390fd5b600073ffffffffffffffffffffffffffffffffffffffff168273ffffffffffffffffffffffffffffffffffffffff1603611d3c576040517f08c379a0000000000000000000000000000000000000000000000000000000008152600401611d33906139e7565b60405180910390fd5b611d47838383612639565b611d52600082611b09565b6001600360008573ffffffffffffffffffffffffffffffffffffffff1673ffffffffffffffffffffffffffffffffffffffff1681526020019081526020016000206000828254611da2919061372b565b925050819055506001600360008473ffffffffffffffffffffffffffffffffffffffff1673ffffffffffffffffffffffffffffffffffffffff1681526020019081526020016000206000828254611df9919061345e565b92505081905550816002600083815260200190815260200160002060006101000a81548173ffffffffffffffffffffffffffffffffffffffff021916908373ffffffffffffffffffffffffffffffffffffffff160217905550808273ffffffffffffffffffffffffffffffffffffffff168473ffffffffffffffffffffffffffffffffffffffff167fddf252ad1be2c89b69c2b068fc378daa952ba7f163c4a11628f55a4df523b3ef60405160405180910390a4611eb883838361263e565b505050565b600081600001549050919050565b6001816000016000828254019250508190555050565b600073ffffffffffffffffffffffffffffffffffffffff168273ffffffffffffffffffffffffffffffffffffffff1603611f50576040517f08c379a0000000000000000000000000000000000000000000000000000000008152600401611f4790613a53565b60405180910390fd5b611f59816125cd565b15611f99576040517f08c379a0000000000000000000000000000000000000000000000000000000008152600401611f9090613abf565b60405180910390fd5b611fa560008383612639565b6001600360008473ffffffffffffffffffffffffffffffffffffffff1673ffffffffffffffffffffffffffffffffffffffff1681526020019081526020016000206000828254611ff5919061345e565b92505081905550816002600083815260200190815260200160002060006101000a81548173ffffffffffffffffffffffffffffffffffffffff021916908373ffffffffffffffffffffffffffffffffffffffff160217905550808273ffffffffffffffffffffffffffffffffffffffff16600073ffffffffffffffffffffffffffffffffffffffff167fddf252ad1be2c89b69c2b068fc378daa952ba7f163c4a11628f55a4df523b3ef60405160405180910390a46120b66000838361263e565b5050565b6120c3826125cd565b612102576040517f08c379a00000000000000000000000000000000000000000000000000000000081526004016120f990613b51565b60405180910390fd5b806006600084815260200190815260200160002090816121229190613d1d565b505050565b6000811161216a576040517f08c379a000000000000000000000000000000000000000000000000000000000815260040161216190613e3b565b60405180910390fd5b60095434146121ae576040517f08c379a00000000000000000000000000000000000000000000000000000000081526004016121a590613ecd565b60405180910390fd5b6040518060a001604052808381526020013373ffffffffffffffffffffffffffffffffffffffff1681526020013073ffffffffffffffffffffffffffffffffffffffff16815260200182815260200160001515815250600b60008481526020019081526020016000206000820151816000015560208201518160010160006101000a81548173ffffffffffffffffffffffffffffffffffffffff021916908373ffffffffffffffffffffffffffffffffffffffff16021790555060408201518160020160006101000a81548173ffffffffffffffffffffffffffffffffffffffff021916908373ffffffffffffffffffffffffffffffffffffffff1602179055506060820151816003015560808201518160040160006101000a81548160ff0219169083151502179055509050506122e7333084611c57565b817fdebdb32cb5230ab727c9c361b16fdb2015df225c10e6a3e7f60ecd5dc5be4516333084600060405161231e9493929190613eed565b60405180910390a25050565b60008160000154905060008111612376576040517f08c379a000000000000000000000000000000000000000000000000000000000815260040161236d90613f7e565b60405180910390fd5b6001810382600001819055505050565b8173ffffffffffffffffffffffffffffffffffffffff168373ffffffffffffffffffffffffffffffffffffffff16036123f4576040517f08c379a00000000000000000000000000000000000000000000000000000000081526004016123eb90613fea565b60405180910390fd5b80600560008573ffffffffffffffffffffffffffffffffffffffff1673ffffffffffffffffffffffffffffffffffffffff16815260200190815260200160002060008473ffffffffffffffffffffffffffffffffffffffff1673ffffffffffffffffffffffffffffffffffffffff16815260200190815260200160002060006101000a81548160ff0219169083151502179055508173ffffffffffffffffffffffffffffffffffffffff168373ffffffffffffffffffffffffffffffffffffffff167f17307eab39ab6107e8899845ad3d59bd9653f200f220920489ca2b5937696c31836040516124e59190612a5e565b60405180910390a3505050565b6124fd848484611c57565b61250984848484612643565b612548576040517f08c379a000000000000000000000000000000000000000000000000000000000815260040161253f9061407c565b60405180910390fd5b50505050565b606060405180602001604052806000815250905090565b606061257082611ab6565b600061257a61254e565b9050600081511161259a57604051806020016040528060008152506125c5565b806125a4846127ca565b6040516020016125b59291906138bf565b6040516020818303038152906040525b915050919050565b60008073ffffffffffffffffffffffffffffffffffffffff166002600084815260200190815260200160002060009054906101000a900473ffffffffffffffffffffffffffffffffffffffff1673ffffffffffffffffffffffffffffffffffffffff1614159050919050565b505050565b505050565b60006126648473ffffffffffffffffffffffffffffffffffffffff1661292a565b156127bd578373ffffffffffffffffffffffffffffffffffffffff1663150b7a0261268d611b01565b8786866040518563ffffffff1660e01b81526004016126af94939291906140f1565b6020604051808303816000875af19250505080156126eb57506040513d601f19601f820116820180604052508101906126e89190614152565b60015b61276d573d806000811461271b576040519150601f19603f3d011682016040523d82523d6000602084013e612720565b606091505b506000815103612765576040517f08c379a000000000000000000000000000000000000000000000000000000000815260040161275c9061407c565b60405180910390fd5b805181602001fd5b63150b7a0260e01b7bffffffffffffffffffffffffffffffffffffffffffffffffffffffff1916817bffffffffffffffffffffffffffffffffffffffffffffffffffffffff1916149150506127c2565b600190505b949350505050565b606060008203612811576040518060400160405280600181526020017f30000000000000000000000000000000000000000000000000000000000000008152509050612925565b600082905060005b6000821461284357808061282c90613492565b915050600a8261283c91906141ae565b9150612819565b60008167ffffffffffffffff81111561285f5761285e612e82565b5b6040519080825280601f01601f1916602001820160405280156128915781602001600182028036833780820191505090505b5090505b6000851461291e576001826128aa919061372b565b9150600a856128b991906141df565b60306128c5919061345e565b60f81b8183815181106128db576128da6134da565b5b60200101907effffffffffffffffffffffffffffffffffffffffffffffffffffffffffffff1916908160001a905350600a8561291791906141ae565b9450612895565b8093505050505b919050565b6000808273ffffffffffffffffffffffffffffffffffffffff163b119050919050565b6040518060a0016040528060008152602001600073ffffffffffffffffffffffffffffffffffffffff168152602001600073ffffffffffffffffffffffffffffffffffffffff168152602001600081526020016000151581525090565b6000604051905090565b600080fd5b600080fd5b60007fffffffff0000000000000000000000000000000000000000000000000000000082169050919050565b6129f3816129be565b81146129fe57600080fd5b50565b600081359050612a10816129ea565b92915050565b600060208284031215612a2c57612a2b6129b4565b5b6000612a3a84828501612a01565b91505092915050565b60008115159050919050565b612a5881612a43565b82525050565b6000602082019050612a736000830184612a4f565b92915050565b600081519050919050565b600082825260208201905092915050565b60005b83811015612ab3578082015181840152602081019050612a98565b60008484015250505050565b6000601f19601f8301169050919050565b6000612adb82612a79565b612ae58185612a84565b9350612af5818560208601612a95565b612afe81612abf565b840191505092915050565b60006020820190508181036000830152612b238184612ad0565b905092915050565b6000819050919050565b612b3e81612b2b565b8114612b4957600080fd5b50565b600081359050612b5b81612b35565b92915050565b600060208284031215612b7757612b766129b4565b5b6000612b8584828501612b4c565b91505092915050565b600073ffffffffffffffffffffffffffffffffffffffff82169050919050565b6000612bb982612b8e565b9050919050565b612bc981612bae565b82525050565b6000602082019050612be46000830184612bc0565b92915050565b612bf381612bae565b8114612bfe57600080fd5b50565b600081359050612c1081612bea565b92915050565b60008060408385031215612c2d57612c2c6129b4565b5b6000612c3b85828601612c01565b9250506020612c4c85828601612b4c565b9150509250929050565b612c5f81612b2b565b82525050565b6000602082019050612c7a6000830184612c56565b92915050565b600080600060608486031215612c9957612c986129b4565b5b6000612ca786828701612c01565b9350506020612cb886828701612c01565b9250506040612cc986828701612b4c565b9150509250925092565b600081519050919050565b600082825260208201905092915050565b6000819050602082019050919050565b612d0881612b2b565b82525050565b6000612d1982612b8e565b9050919050565b612d2981612d0e565b82525050565b612d3881612a43565b82525050565b60a082016000820151612d546000850182612cff565b506020820151612d676020850182612d20565b506040820151612d7a6040850182612d20565b506060820151612d8d6060850182612cff565b506080820151612da06080850182612d2f565b50505050565b6000612db28383612d3e565b60a08301905092915050565b6000602082019050919050565b6000612dd682612cd3565b612de08185612cde565b9350612deb83612cef565b8060005b83811015612e1c578151612e038882612da6565b9750612e0e83612dbe565b925050600181019050612def565b5085935050505092915050565b60006020820190508181036000830152612e438184612dcb565b905092915050565b600060208284031215612e6157612e606129b4565b5b6000612e6f84828501612c01565b91505092915050565b600080fd5b600080fd5b7f4e487b7100000000000000000000000000000000000000000000000000000000600052604160045260246000fd5b612eba82612abf565b810181811067ffffffffffffffff82111715612ed957612ed8612e82565b5b80604052505050565b6000612eec6129aa565b9050612ef88282612eb1565b919050565b600067ffffffffffffffff821115612f1857612f17612e82565b5b612f2182612abf565b9050602081019050919050565b82818337600083830152505050565b6000612f50612f4b84612efd565b612ee2565b905082815260208101848484011115612f6c57612f6b612e7d565b5b612f77848285612f2e565b509392505050565b600082601f830112612f9457612f93612e78565b5b8135612fa4848260208601612f3d565b91505092915050565b60008060408385031215612fc457612fc36129b4565b5b600083013567ffffffffffffffff811115612fe257612fe16129b9565b5b612fee85828601612f7f565b9250506020612fff85828601612b4c565b9150509250929050565b600080604083850312156130205761301f6129b4565b5b600061302e85828601612b4c565b925050602061303f85828601612b4c565b9150509250929050565b61305281612a43565b811461305d57600080fd5b50565b60008135905061306f81613049565b92915050565b6000806040838503121561308c5761308b6129b4565b5b600061309a85828601612c01565b92505060206130ab85828601613060565b9150509250929050565b600067ffffffffffffffff8211156130d0576130cf612e82565b5b6130d982612abf565b9050602081019050919050565b60006130f96130f4846130b5565b612ee2565b90508281526020810184848401111561311557613114612e7d565b5b613120848285612f2e565b509392505050565b600082601f83011261313d5761313c612e78565b5b813561314d8482602086016130e6565b91505092915050565b600080600080608085870312156131705761316f6129b4565b5b600061317e87828801612c01565b945050602061318f87828801612c01565b93505060406131a087828801612b4c565b925050606085013567ffffffffffffffff8111156131c1576131c06129b9565b5b6131cd87828801613128565b91505092959194509250565b600080604083850312156131f0576131ef6129b4565b5b60006131fe85828601612c01565b925050602061320f85828601612c01565b9150509250929050565b7f4e487b7100000000000000000000000000000000000000000000000000000000600052602260045260246000fd5b6000600282049050600182168061326057607f821691505b60208210810361327357613272613219565b5b50919050565b7f4552433732313a20617070726f76616c20746f2063757272656e74206f776e6560008201527f7200000000000000000000000000000000000000000000000000000000000000602082015250565b60006132d5602183612a84565b91506132e082613279565b604082019050919050565b60006020820190508181036000830152613304816132c8565b9050919050565b7f4552433732313a20617070726f76652063616c6c6572206973206e6f7420746f60008201527f6b656e206f776e6572206e6f7220617070726f76656420666f7220616c6c0000602082015250565b6000613367603e83612a84565b91506133728261330b565b604082019050919050565b600060208201905081810360008301526133968161335a565b9050919050565b7f4552433732313a2063616c6c6572206973206e6f7420746f6b656e206f776e6560008201527f72206e6f7220617070726f766564000000000000000000000000000000000000602082015250565b60006133f9602e83612a84565b91506134048261339d565b604082019050919050565b60006020820190508181036000830152613428816133ec565b9050919050565b7f4e487b7100000000000000000000000000000000000000000000000000000000600052601160045260246000fd5b600061346982612b2b565b915061347483612b2b565b925082820190508082111561348c5761348b61342f565b5b92915050565b600061349d82612b2b565b91507fffffffffffffffffffffffffffffffffffffffffffffffffffffffffffffffff82036134cf576134ce61342f565b5b600182019050919050565b7f4e487b7100000000000000000000000000000000000000000000000000000000600052603260045260246000fd5b7f4552433732313a20696e76616c696420746f6b656e2049440000000000000000600082015250565b600061353f601883612a84565b915061354a82613509565b602082019050919050565b6000602082019050818103600083015261356e81613532565b9050919050565b7f4552433732313a2061646472657373207a65726f206973206e6f74206120766160008201527f6c6964206f776e65720000000000000000000000000000000000000000000000602082015250565b60006135d1602983612a84565b91506135dc82613575565b604082019050919050565b60006020820190508181036000830152613600816135c4565b9050919050565b7f4f6e6c79206974656d206f776e65722063616e20706572666f726d207468697360008201527f206f7065726174696f6e00000000000000000000000000000000000000000000602082015250565b6000613663602a83612a84565b915061366e82613607565b604082019050919050565b6000602082019050818103600083015261369281613656565b9050919050565b7f5072696365206d75737420626520657175616c20746f206c697374696e67207060008201527f7269636500000000000000000000000000000000000000000000000000000000602082015250565b60006136f5602483612a84565b915061370082613699565b604082019050919050565b60006020820190508181036000830152613724816136e8565b9050919050565b600061373682612b2b565b915061374183612b2b565b92508282039050818111156137595761375861342f565b5b92915050565b7f6f6e6c79206f776e6572206f6620746865206d61726b6574706c61636520636160008201527f6e206368616e676520746865206c697374696e67207072696365000000000000602082015250565b60006137bb603a83612a84565b91506137c68261375f565b604082019050919050565b600060208201905081810360008301526137ea816137ae565b9050919050565b7f506c65617365207375626d6974207468652061736b696e67207072696365206960008201527f6e206f7264657220746f20636f6d706c65746520746865207075726368617365602082015250565b600061384d604083612a84565b9150613858826137f1565b604082019050919050565b6000602082019050818103600083015261387c81613840565b9050919050565b600081905092915050565b600061389982612a79565b6138a38185613883565b93506138b3818560208601612a95565b80840191505092915050565b60006138cb828561388e565b91506138d7828461388e565b91508190509392505050565b7f4552433732313a207472616e736665722066726f6d20696e636f72726563742060008201527f6f776e6572000000000000000000000000000000000000000000000000000000602082015250565b600061393f602583612a84565b915061394a826138e3565b604082019050919050565b6000602082019050818103600083015261396e81613932565b9050919050565b7f4552433732313a207472616e7366657220746f20746865207a65726f2061646460008201527f7265737300000000000000000000000000000000000000000000000000000000602082015250565b60006139d1602483612a84565b91506139dc82613975565b604082019050919050565b60006020820190508181036000830152613a00816139c4565b9050919050565b7f4552433732313a206d696e7420746f20746865207a65726f2061646472657373600082015250565b6000613a3d602083612a84565b9150613a4882613a07565b602082019050919050565b60006020820190508181036000830152613a6c81613a30565b9050919050565b7f4552433732313a20746f6b656e20616c7265616479206d696e74656400000000600082015250565b6000613aa9601c83612a84565b9150613ab482613a73565b602082019050919050565b60006020820190508181036000830152613ad881613a9c565b9050919050565b7f45524337323155524953746f726167653a2055524920736574206f66206e6f6e60008201527f6578697374656e7420746f6b656e000000000000000000000000000000000000602082015250565b6000613b3b602e83612a84565b9150613b4682613adf565b604082019050919050565b60006020820190508181036000830152613b6a81613b2e565b9050919050565b60008190508160005260206000209050919050565b60006020601f8301049050919050565b600082821b905092915050565b600060088302613bd37fffffffffffffffffffffffffffffffffffffffffffffffffffffffffffffffff82613b96565b613bdd8683613b96565b95508019841693508086168417925050509392505050565b6000819050919050565b6000613c1a613c15613c1084612b2b565b613bf5565b612b2b565b9050919050565b6000819050919050565b613c3483613bff565b613c48613c4082613c21565b848454613ba3565b825550505050565b600090565b613c5d613c50565b613c68818484613c2b565b505050565b5b81811015613c8c57613c81600082613c55565b600181019050613c6e565b5050565b601f821115613cd157613ca281613b71565b613cab84613b86565b81016020851015613cba578190505b613cce613cc685613b86565b830182613c6d565b50505b505050565b600082821c905092915050565b6000613cf460001984600802613cd6565b1980831691505092915050565b6000613d0d8383613ce3565b9150826002028217905092915050565b613d2682612a79565b67ffffffffffffffff811115613d3f57613d3e612e82565b5b613d498254613248565b613d54828285613c90565b600060209050601f831160018114613d875760008415613d75578287015190505b613d7f8582613d01565b865550613de7565b601f198416613d9586613b71565b60005b82811015613dbd57848901518255600182019150602085019450602081019050613d98565b86831015613dda5784890151613dd6601f891682613ce3565b8355505b6001600288020188555050505b505050505050565b7f5072696365206d75737420626520616c206c6573742031000000000000000000600082015250565b6000613e25601783612a84565b9150613e3082613def565b602082019050919050565b60006020820190508181036000830152613e5481613e18565b9050919050565b7f50726963206d75737420626520657175616c20746f206c697374696e6720707260008201527f6963650000000000000000000000000000000000000000000000000000000000602082015250565b6000613eb7602383612a84565b9150613ec282613e5b565b604082019050919050565b60006020820190508181036000830152613ee681613eaa565b9050919050565b6000608082019050613f026000830187612bc0565b613f0f6020830186612bc0565b613f1c6040830185612c56565b613f296060830184612a4f565b95945050505050565b7f436f756e7465723a2064656372656d656e74206f766572666c6f770000000000600082015250565b6000613f68601b83612a84565b9150613f7382613f32565b602082019050919050565b60006020820190508181036000830152613f9781613f5b565b9050919050565b7f4552433732313a20617070726f766520746f2063616c6c657200000000000000600082015250565b6000613fd4601983612a84565b9150613fdf82613f9e565b602082019050919050565b6000602082019050818103600083015261400381613fc7565b9050919050565b7f4552433732313a207472616e7366657220746f206e6f6e20455243373231526560008201527f63656976657220696d706c656d656e7465720000000000000000000000000000602082015250565b6000614066603283612a84565b91506140718261400a565b604082019050919050565b6000602082019050818103600083015261409581614059565b9050919050565b600081519050919050565b600082825260208201905092915050565b60006140c38261409c565b6140cd81856140a7565b93506140dd818560208601612a95565b6140e681612abf565b840191505092915050565b60006080820190506141066000830187612bc0565b6141136020830186612bc0565b6141206040830185612c56565b818103606083015261413281846140b8565b905095945050505050565b60008151905061414c816129ea565b92915050565b600060208284031215614168576141676129b4565b5b60006141768482850161413d565b91505092915050565b7f4e487b7100000000000000000000000000000000000000000000000000000000600052601260045260246000fd5b60006141b982612b2b565b91506141c483612b2b565b9250826141d4576141d361417f565b5b828204905092915050565b60006141ea82612b2b565b91506141f583612b2b565b9250826142055761420461417f565b5b82820690509291505056fea26469706673582212205aba350ed982beb49bd4455769aac8bf0af75989391603021da417fbd165c3b764736f6c63430008110033",
  "linkReferences": {},
  "deployedLinkReferences": {}
}